{
  "abi": [
    {
      "inputs": [],
      "stateMutability": "nonpayable",
      "type": "constructor"
    },
    {
      "anonymous": false,
      "inputs": [
        {
          "indexed": true,
          "internalType": "address",
          "name": "player",
          "type": "address"
        },
        {
          "indexed": false,
          "internalType": "uint256",
          "name": "amount",
          "type": "uint256"
        },
        {
          "indexed": false,
          "internalType": "uint256",
          "name": "timestamp",
          "type": "uint256"
        }
      ],
      "name": "GamePaid",
      "type": "event"
    },
    {
      "anonymous": false,
      "inputs": [
        {
          "indexed": true,
          "internalType": "address",
          "name": "player",
          "type": "address"
        },
        {
          "indexed": false,
          "internalType": "uint256",
          "name": "timestamp",
          "type": "uint256"
        }
      ],
      "name": "PaymentCleared",
      "type": "event"
    },
    {
      "anonymous": false,
      "inputs": [
        {
          "indexed": true,
          "internalType": "address",
          "name": "owner",
          "type": "address"
        },
        {
          "indexed": false,
          "internalType": "uint256",
          "name": "amount",
          "type": "uint256"
        },
        {
          "indexed": false,
          "internalType": "uint256",
          "name": "timestamp",
          "type": "uint256"
        }
      ],
      "name": "Withdrawal",
      "type": "event"
    },
    {
      "inputs": [],
      "name": "PLAY_COST",
      "outputs": [
        {
          "internalType": "uint256",
          "name": "",
          "type": "uint256"
        }
      ],
      "stateMutability": "view",
      "type": "function"
    },
    {
      "inputs": [
        {
          "internalType": "address",
          "name": "_player",
          "type": "address"
        }
      ],
      "name": "clearPayment",
      "outputs": [],
      "stateMutability": "nonpayable",
      "type": "function"
    },
    {
      "inputs": [],
      "name": "getBalance",
      "outputs": [
        {
          "internalType": "uint256",
          "name": "",
          "type": "uint256"
        }
      ],
      "stateMutability": "view",
      "type": "function"
    },
    {
      "inputs": [
        {
          "internalType": "address",
          "name": "",
          "type": "address"
        }
      ],
      "name": "hasActivePay",
      "outputs": [
        {
          "internalType": "bool",
          "name": "",
          "type": "bool"
        }
      ],
      "stateMutability": "view",
      "type": "function"
    },
    {
      "inputs": [
        {
          "internalType": "address",
          "name": "_player",
          "type": "address"
        }
      ],
      "name": "hasActivePayment",
      "outputs": [
        {
          "internalType": "bool",
          "name": "",
          "type": "bool"
        }
      ],
      "stateMutability": "view",
      "type": "function"
    },
    {
      "inputs": [],
      "name": "owner",
      "outputs": [
        {
          "internalType": "address",
          "name": "",
          "type": "address"
        }
      ],
      "stateMutability": "view",
      "type": "function"
    },
    {
      "inputs": [],
      "name": "playGame",
      "outputs": [],
      "stateMutability": "payable",
      "type": "function"
    },
    {
      "inputs": [],
      "name": "totalPayments",
      "outputs": [
        {
          "internalType": "uint256",
          "name": "",
          "type": "uint256"
        }
      ],
      "stateMutability": "view",
      "type": "function"
    },
    {
      "inputs": [
        {
          "internalType": "address",
          "name": "newOwner",
          "type": "address"
        }
      ],
      "name": "transferOwnership",
      "outputs": [],
      "stateMutability": "nonpayable",
      "type": "function"
    },
    {
      "inputs": [],
      "name": "withdraw",
      "outputs": [],
      "stateMutability": "nonpayable",
      "type": "function"
    }
  ],
  "devdoc": {
    "details": "Simple payment contract for Banana Fever Dream game Players pay 0.1 APE to play in competitive mode and rank on the leaderboard",
    "kind": "dev",
    "methods": {
      "clearPayment(address)": {
        "details": "Clear payment status for a player after they finish their game Can be called by anyone, but typically called by the player or leaderboard contract",
        "params": {
          "_player": "Address of the player to clear"
        }
      },
      "getBalance()": {
        "details": "Get the contract balance",
        "returns": {
          "_0": "uint256 Current balance in wei"
        }
      },
      "hasActivePayment(address)": {
        "details": "Check if a player has an active payment",
        "params": {
          "_player": "Address of the player to check"
        },
        "returns": {
          "_0": "bool True if player has paid and not yet used their credit"
        }
      },
      "playGame()": {
        "details": "Pay to play the game in competitive mode Players must send exactly 0.1 APE"
      },
      "transferOwnership(address)": {
        "details": "Transfer ownership to a new address",
        "params": {
          "newOwner": "Address of the new owner"
        }
      },
      "withdraw()": {
        "details": "Owner can withdraw accumulated funds"
      }
    },
    "title": "CoinSlot",
    "version": 1
  },
  "evm": {
    "assembly": "    /* \"CoinSlot.sol\":224:3104  contract CoinSlot {... */\n  mstore(0x40, 0x80)\n    /* \"CoinSlot.sol\":990:1039  constructor() {... */\n  callvalue\n  dup1\n  iszero\n  tag_1\n  jumpi\n  0x00\n  dup1\n  revert\ntag_1:\n  pop\n    /* \"CoinSlot.sol\":1014:1019  owner */\n  0x00\n    /* \"CoinSlot.sol\":1014:1032  owner = msg.sender */\n  dup1\n  sload\n  not(sub(shl(0xa0, 0x01), 0x01))\n  and\n    /* \"CoinSlot.sol\":1022:1032  msg.sender */\n  caller\n    /* \"CoinSlot.sol\":1014:1032  owner = msg.sender */\n  or\n  swap1\n  sstore\n    /* \"CoinSlot.sol\":224:3104  contract CoinSlot {... */\n  dataSize(sub_0)\n  dup1\n  dataOffset(sub_0)\n  0x00\n  codecopy\n  0x00\n  return\nstop\n\nsub_0: assembly {\n        /* \"CoinSlot.sol\":224:3104  contract CoinSlot {... */\n      mstore(0x40, 0x80)\n      jumpi(tag_1, lt(calldatasize, 0x04))\n      shr(0xe0, calldataload(0x00))\n      dup1\n      0x80040f4b\n      gt\n      tag_12\n      jumpi\n      dup1\n      0xaf899735\n      gt\n      tag_13\n      jumpi\n      dup1\n      0xaf899735\n      eq\n      tag_9\n      jumpi\n      dup1\n      0xb216a6c6\n      eq\n      tag_10\n      jumpi\n      dup1\n      0xf2fde38b\n      eq\n      tag_11\n      jumpi\n      0x00\n      dup1\n      revert\n    tag_13:\n      dup1\n      0x80040f4b\n      eq\n      tag_7\n      jumpi\n      dup1\n      0x8da5cb5b\n      eq\n      tag_8\n      jumpi\n      0x00\n      dup1\n      revert\n    tag_12:\n      dup1\n      0x12065fe0\n      gt\n      tag_14\n      jumpi\n      dup1\n      0x12065fe0\n      eq\n      tag_4\n      jumpi\n      dup1\n      0x3ccfd60b\n      eq\n      tag_5\n      jumpi\n      dup1\n      0x6f07f72e\n      eq\n      tag_6\n      jumpi\n      0x00\n      dup1\n      revert\n    tag_14:\n      dup1\n      0x5b4487\n      eq\n      tag_2\n      jumpi\n      dup1\n      0x029a18dc\n      eq\n      tag_3\n      jumpi\n    tag_1:\n      0x00\n      dup1\n      revert\n        /* \"CoinSlot.sol\":563:591  uint256 public totalPayments */\n    tag_2:\n      callvalue\n      dup1\n      iszero\n      tag_15\n      jumpi\n      0x00\n      dup1\n      revert\n    tag_15:\n      pop\n      tag_16\n      sload(0x02)\n      dup2\n      jump\n    tag_16:\n      mload(0x40)\n        /* \"#utility.yul\":160:185   */\n      swap1\n      dup2\n      mstore\n        /* \"#utility.yul\":148:150   */\n      0x20\n        /* \"#utility.yul\":133:151   */\n      add\n        /* \"CoinSlot.sol\":563:591  uint256 public totalPayments */\n    tag_18:\n      mload(0x40)\n      dup1\n      swap2\n      sub\n      swap1\n      return\n        /* \"CoinSlot.sol\":2075:2192  function hasActivePayment(address _player) external view returns (bool) {... */\n    tag_3:\n      callvalue\n      dup1\n      iszero\n      tag_20\n      jumpi\n      0x00\n      dup1\n      revert\n    tag_20:\n      pop\n      tag_21\n      tag_22\n      calldatasize\n      0x04\n      tag_23\n      jump\t// in\n    tag_22:\n      sub(shl(0xa0, 0x01), 0x01)\n        /* \"CoinSlot.sol\":2164:2185  hasActivePay[_player] */\n      and\n        /* \"CoinSlot.sol\":2141:2145  bool */\n      0x00\n        /* \"CoinSlot.sol\":2164:2185  hasActivePay[_player] */\n      swap1\n      dup2\n      mstore\n        /* \"CoinSlot.sol\":2164:2176  hasActivePay */\n      0x01\n        /* \"CoinSlot.sol\":2164:2185  hasActivePay[_player] */\n      0x20\n      mstore\n      0x40\n      swap1\n      keccak256\n      sload\n      0xff\n      and\n      swap1\n        /* \"CoinSlot.sol\":2075:2192  function hasActivePayment(address _player) external view returns (bool) {... */\n      jump\n    tag_21:\n      mload(0x40)\n        /* \"#utility.yul\":675:689   */\n      swap1\n      iszero\n        /* \"#utility.yul\":668:690   */\n      iszero\n        /* \"#utility.yul\":650:691   */\n      dup2\n      mstore\n        /* \"#utility.yul\":638:640   */\n      0x20\n        /* \"#utility.yul\":623:641   */\n      add\n        /* \"CoinSlot.sol\":2075:2192  function hasActivePayment(address _player) external view returns (bool) {... */\n      tag_18\n        /* \"#utility.yul\":510:697   */\n      jump\n        /* \"CoinSlot.sol\":2301:2400  function getBalance() external view returns (uint256) {... */\n    tag_4:\n      callvalue\n      dup1\n      iszero\n      tag_27\n      jumpi\n      0x00\n      dup1\n      revert\n    tag_27:\n      pop\n        /* \"CoinSlot.sol\":2372:2393  address(this).balance */\n      selfbalance\n        /* \"CoinSlot.sol\":2301:2400  function getBalance() external view returns (uint256) {... */\n      jump(tag_16)\n        /* \"CoinSlot.sol\":2475:2806  function withdraw() external onlyOwner {... */\n    tag_5:\n      callvalue\n      dup1\n      iszero\n      tag_31\n      jumpi\n      0x00\n      dup1\n      revert\n    tag_31:\n      pop\n      tag_32\n      tag_33\n      jump\t// in\n    tag_32:\n      stop\n        /* \"CoinSlot.sol\":1721:1870  function clearPayment(address _player) external {... */\n    tag_6:\n      callvalue\n      dup1\n      iszero\n      tag_34\n      jumpi\n      0x00\n      dup1\n      revert\n    tag_34:\n      pop\n      tag_32\n      tag_36\n      calldatasize\n      0x04\n      tag_23\n      jump\t// in\n    tag_36:\n      tag_37\n      jump\t// in\n        /* \"CoinSlot.sol\":471:515  mapping(address => bool) public hasActivePay */\n    tag_7:\n      callvalue\n      dup1\n      iszero\n      tag_38\n      jumpi\n      0x00\n      dup1\n      revert\n    tag_38:\n      pop\n      tag_21\n      tag_40\n      calldatasize\n      0x04\n      tag_23\n      jump\t// in\n    tag_40:\n      mstore(0x20, 0x01)\n      0x00\n      swap1\n      dup2\n      mstore\n      0x40\n      swap1\n      keccak256\n      sload\n      0xff\n      and\n      dup2\n      jump\n        /* \"CoinSlot.sol\":298:318  address public owner */\n    tag_8:\n      callvalue\n      dup1\n      iszero\n      tag_43\n      jumpi\n      0x00\n      dup1\n      revert\n    tag_43:\n      pop\n      sload(0x00)\n      tag_44\n      swap1\n      sub(shl(0xa0, 0x01), 0x01)\n      and\n      dup2\n      jump\n    tag_44:\n      mload(0x40)\n      sub(shl(0xa0, 0x01), 0x01)\n        /* \"#utility.yul\":866:921   */\n      swap1\n      swap2\n      and\n        /* \"#utility.yul\":848:922   */\n      dup2\n      mstore\n        /* \"#utility.yul\":836:838   */\n      0x20\n        /* \"#utility.yul\":821:839   */\n      add\n        /* \"CoinSlot.sol\":298:318  address public owner */\n      tag_18\n        /* \"#utility.yul\":702:928   */\n      jump\n        /* \"CoinSlot.sol\":1159:1476  function playGame() external payable {... */\n    tag_9:\n      tag_32\n      tag_49\n      jump\t// in\n        /* \"CoinSlot.sol\":358:403  uint256 public constant PLAY_COST = 0.1 ether */\n    tag_10:\n      callvalue\n      dup1\n      iszero\n      tag_50\n      jumpi\n      0x00\n      dup1\n      revert\n    tag_50:\n      pop\n      tag_16\n        /* \"CoinSlot.sol\":394:403  0.1 ether */\n      0x016345785d8a0000\n        /* \"CoinSlot.sol\":358:403  uint256 public constant PLAY_COST = 0.1 ether */\n      dup2\n      jump\n        /* \"CoinSlot.sol\":2928:3102  function transferOwnership(address newOwner) external onlyOwner {... */\n    tag_11:\n      callvalue\n      dup1\n      iszero\n      tag_54\n      jumpi\n      0x00\n      dup1\n      revert\n    tag_54:\n      pop\n      tag_32\n      tag_56\n      calldatasize\n      0x04\n      tag_23\n      jump\t// in\n    tag_56:\n      tag_57\n      jump\t// in\n        /* \"CoinSlot.sol\":2475:2806  function withdraw() external onlyOwner {... */\n    tag_33:\n        /* \"CoinSlot.sol\":919:924  owner */\n      and(sub(shl(0xa0, 0x01), 0x01), sload(0x00))\n        /* \"CoinSlot.sol\":905:915  msg.sender */\n      caller\n        /* \"CoinSlot.sol\":905:924  msg.sender == owner */\n      eq\n        /* \"CoinSlot.sol\":897:962  require(msg.sender == owner, \"Only owner can call this function\") */\n      tag_61\n      jumpi\n      mload(0x40)\n      shl(0xe5, 0x461bcd)\n      dup2\n      mstore\n        /* \"#utility.yul\":1135:1137   */\n      0x20\n        /* \"CoinSlot.sol\":897:962  require(msg.sender == owner, \"Only owner can call this function\") */\n      0x04\n      dup3\n      add\n        /* \"#utility.yul\":1117:1138   */\n      mstore\n        /* \"#utility.yul\":1174:1176   */\n      0x21\n        /* \"#utility.yul\":1154:1172   */\n      0x24\n      dup3\n      add\n        /* \"#utility.yul\":1147:1177   */\n      mstore\n        /* \"#utility.yul\":1213:1247   */\n      0x4f6e6c79206f776e65722063616e2063616c6c20746869732066756e6374696f\n        /* \"#utility.yul\":1193:1211   */\n      0x44\n      dup3\n      add\n        /* \"#utility.yul\":1186:1248   */\n      mstore\n      shl(0xf9, 0x37)\n        /* \"#utility.yul\":1264:1282   */\n      0x64\n      dup3\n      add\n        /* \"#utility.yul\":1257:1288   */\n      mstore\n        /* \"#utility.yul\":1305:1324   */\n      0x84\n      add\n        /* \"CoinSlot.sol\":897:962  require(msg.sender == owner, \"Only owner can call this function\") */\n    tag_62:\n      mload(0x40)\n      dup1\n      swap2\n      sub\n      swap1\n      revert\n    tag_61:\n        /* \"CoinSlot.sol\":2542:2563  address(this).balance */\n      selfbalance\n        /* \"CoinSlot.sol\":2581:2592  balance > 0 */\n      dup1\n        /* \"CoinSlot.sol\":2573:2617  require(balance > 0, \"No funds to withdraw\") */\n      tag_65\n      jumpi\n      mload(0x40)\n      shl(0xe5, 0x461bcd)\n      dup2\n      mstore\n        /* \"#utility.yul\":1537:1539   */\n      0x20\n        /* \"CoinSlot.sol\":2573:2617  require(balance > 0, \"No funds to withdraw\") */\n      0x04\n      dup3\n      add\n        /* \"#utility.yul\":1519:1540   */\n      mstore\n        /* \"#utility.yul\":1576:1578   */\n      0x14\n        /* \"#utility.yul\":1556:1574   */\n      0x24\n      dup3\n      add\n        /* \"#utility.yul\":1549:1579   */\n      mstore\n        /* \"#utility.yul\":1615:1637   */\n      0x4e6f2066756e647320746f207769746864726177000000000000000000000000\n        /* \"#utility.yul\":1595:1613   */\n      0x44\n      dup3\n      add\n        /* \"#utility.yul\":1588:1638   */\n      mstore\n        /* \"#utility.yul\":1655:1673   */\n      0x64\n      add\n        /* \"CoinSlot.sol\":2573:2617  require(balance > 0, \"No funds to withdraw\") */\n      tag_62\n        /* \"#utility.yul\":1335:1679   */\n      jump\n        /* \"CoinSlot.sol\":2573:2617  require(balance > 0, \"No funds to withdraw\") */\n    tag_65:\n        /* \"CoinSlot.sol\":2637:2649  bool success */\n      0x00\n        /* \"CoinSlot.sol\":2655:2660  owner */\n      dup1\n      sload\n        /* \"CoinSlot.sol\":2655:2685  owner.call{value: balance}(\"\") */\n      mload(0x40)\n      sub(shl(0xa0, 0x01), 0x01)\n        /* \"CoinSlot.sol\":2655:2660  owner */\n      swap1\n      swap2\n      and\n      swap1\n        /* \"CoinSlot.sol\":2673:2680  balance */\n      dup4\n      swap1\n        /* \"CoinSlot.sol\":2637:2649  bool success */\n      dup4\n        /* \"CoinSlot.sol\":2655:2685  owner.call{value: balance}(\"\") */\n      dup2\n        /* \"CoinSlot.sol\":2637:2649  bool success */\n      dup2\n        /* \"CoinSlot.sol\":2655:2685  owner.call{value: balance}(\"\") */\n      dup2\n        /* \"CoinSlot.sol\":2673:2680  balance */\n      dup6\n        /* \"CoinSlot.sol\":2655:2660  owner */\n      dup8\n        /* \"CoinSlot.sol\":2655:2685  owner.call{value: balance}(\"\") */\n      gas\n      call\n      swap3\n      pop\n      pop\n      pop\n      returndatasize\n      dup1\n      0x00\n      dup2\n      eq\n      tag_72\n      jumpi\n      mload(0x40)\n      swap2\n      pop\n      and(add(returndatasize, 0x3f), not(0x1f))\n      dup3\n      add\n      0x40\n      mstore\n      returndatasize\n      dup3\n      mstore\n      returndatasize\n      0x00\n      0x20\n      dup5\n      add\n      returndatacopy\n      jump(tag_71)\n    tag_72:\n      0x60\n      swap2\n      pop\n    tag_71:\n      pop\n        /* \"CoinSlot.sol\":2636:2685  (bool success, ) = owner.call{value: balance}(\"\") */\n      pop\n      swap1\n      pop\n        /* \"CoinSlot.sol\":2703:2710  success */\n      dup1\n        /* \"CoinSlot.sol\":2695:2732  require(success, \"Withdrawal failed\") */\n      tag_73\n      jumpi\n      mload(0x40)\n      shl(0xe5, 0x461bcd)\n      dup2\n      mstore\n        /* \"#utility.yul\":2096:2098   */\n      0x20\n        /* \"CoinSlot.sol\":2695:2732  require(success, \"Withdrawal failed\") */\n      0x04\n      dup3\n      add\n        /* \"#utility.yul\":2078:2099   */\n      mstore\n        /* \"#utility.yul\":2135:2137   */\n      0x11\n        /* \"#utility.yul\":2115:2133   */\n      0x24\n      dup3\n      add\n        /* \"#utility.yul\":2108:2138   */\n      mstore\n        /* \"#utility.yul\":2174:2193   */\n      0x5769746864726177616c206661696c6564000000000000000000000000000000\n        /* \"#utility.yul\":2154:2172   */\n      0x44\n      dup3\n      add\n        /* \"#utility.yul\":2147:2194   */\n      mstore\n        /* \"#utility.yul\":2211:2229   */\n      0x64\n      add\n        /* \"CoinSlot.sol\":2695:2732  require(success, \"Withdrawal failed\") */\n      tag_62\n        /* \"#utility.yul\":1894:2235   */\n      jump\n        /* \"CoinSlot.sol\":2695:2732  require(success, \"Withdrawal failed\") */\n    tag_73:\n        /* \"CoinSlot.sol\":2767:2772  owner */\n      sload(0x00)\n        /* \"CoinSlot.sol\":2756:2799  Withdrawal(owner, balance, block.timestamp) */\n      0x40\n      dup1\n      mload\n        /* \"#utility.yul\":2414:2439   */\n      dup5\n      dup2\n      mstore\n        /* \"CoinSlot.sol\":2783:2798  block.timestamp */\n      timestamp\n        /* \"#utility.yul\":2470:2472   */\n      0x20\n        /* \"#utility.yul\":2455:2473   */\n      dup3\n      add\n        /* \"#utility.yul\":2448:2482   */\n      mstore\n      sub(shl(0xa0, 0x01), 0x01)\n        /* \"CoinSlot.sol\":2767:2772  owner */\n      swap1\n      swap3\n      and\n      swap2\n        /* \"CoinSlot.sol\":2756:2799  Withdrawal(owner, balance, block.timestamp) */\n      0xdf273cb619d95419a9cd0ec88123a0538c85064229baa6363788f743fff90deb\n      swap2\n        /* \"#utility.yul\":2387:2405   */\n      add\n        /* \"CoinSlot.sol\":2756:2799  Withdrawal(owner, balance, block.timestamp) */\n      mload(0x40)\n      dup1\n      swap2\n      sub\n      swap1\n      log2\n        /* \"CoinSlot.sol\":2514:2806  {... */\n      pop\n      pop\n        /* \"CoinSlot.sol\":2475:2806  function withdraw() external onlyOwner {... */\n      jump\t// out\n        /* \"CoinSlot.sol\":1721:1870  function clearPayment(address _player) external {... */\n    tag_37:\n      sub(shl(0xa0, 0x01), 0x01)\n        /* \"CoinSlot.sol\":1779:1800  hasActivePay[_player] */\n      dup2\n      and\n        /* \"CoinSlot.sol\":1803:1808  false */\n      0x00\n        /* \"CoinSlot.sol\":1779:1800  hasActivePay[_player] */\n      dup2\n      dup2\n      mstore\n        /* \"CoinSlot.sol\":1779:1791  hasActivePay */\n      0x01\n        /* \"CoinSlot.sol\":1779:1800  hasActivePay[_player] */\n      0x20\n      mstore\n      0x40\n      swap1\n      dup2\n      swap1\n      keccak256\n        /* \"CoinSlot.sol\":1779:1808  hasActivePay[_player] = false */\n      dup1\n      sload\n      not(0xff)\n      and\n      swap1\n      sstore\n        /* \"CoinSlot.sol\":1823:1863  PaymentCleared(_player, block.timestamp) */\n      mload\n      0xffb79ca6e325c1dc8da4ed54b535b4bdec600ca51bd7f86dbb295431cc052548\n      swap1\n      tag_79\n      swap1\n        /* \"CoinSlot.sol\":1847:1862  block.timestamp */\n      timestamp\n        /* \"#utility.yul\":160:185   */\n      dup2\n      mstore\n        /* \"#utility.yul\":148:150   */\n      0x20\n        /* \"#utility.yul\":133:151   */\n      add\n      swap1\n        /* \"#utility.yul\":14:191   */\n      jump\n        /* \"CoinSlot.sol\":1823:1863  PaymentCleared(_player, block.timestamp) */\n    tag_79:\n      mload(0x40)\n      dup1\n      swap2\n      sub\n      swap1\n      log2\n        /* \"CoinSlot.sol\":1721:1870  function clearPayment(address _player) external {... */\n      pop\n      jump\t// out\n        /* \"CoinSlot.sol\":1159:1476  function playGame() external payable {... */\n    tag_49:\n        /* \"CoinSlot.sol\":394:403  0.1 ether */\n      0x016345785d8a0000\n        /* \"CoinSlot.sol\":1214:1223  msg.value */\n      callvalue\n        /* \"CoinSlot.sol\":1214:1236  msg.value == PLAY_COST */\n      eq\n        /* \"CoinSlot.sol\":1206:1273  require(msg.value == PLAY_COST, \"Must pay exactly 0.1 APE to play\") */\n      tag_81\n      jumpi\n      mload(0x40)\n      shl(0xe5, 0x461bcd)\n      dup2\n      mstore\n        /* \"#utility.yul\":2695:2697   */\n      0x20\n        /* \"CoinSlot.sol\":1206:1273  require(msg.value == PLAY_COST, \"Must pay exactly 0.1 APE to play\") */\n      0x04\n      dup3\n      add\n        /* \"#utility.yul\":2677:2698   */\n      dup2\n      swap1\n      mstore\n        /* \"#utility.yul\":2714:2732   */\n      0x24\n      dup3\n      add\n        /* \"#utility.yul\":2707:2737   */\n      mstore\n        /* \"#utility.yul\":2773:2807   */\n      0x4d757374207061792065786163746c7920302e312041504520746f20706c6179\n        /* \"#utility.yul\":2753:2771   */\n      0x44\n      dup3\n      add\n        /* \"#utility.yul\":2746:2808   */\n      mstore\n        /* \"#utility.yul\":2825:2843   */\n      0x64\n      add\n        /* \"CoinSlot.sol\":1206:1273  require(msg.value == PLAY_COST, \"Must pay exactly 0.1 APE to play\") */\n      tag_62\n        /* \"#utility.yul\":2493:2849   */\n      jump\n        /* \"CoinSlot.sol\":1206:1273  require(msg.value == PLAY_COST, \"Must pay exactly 0.1 APE to play\") */\n    tag_81:\n        /* \"CoinSlot.sol\":1343:1353  msg.sender */\n      caller\n        /* \"CoinSlot.sol\":1330:1354  hasActivePay[msg.sender] */\n      0x00\n      swap1\n      dup2\n      mstore\n        /* \"CoinSlot.sol\":1357:1361  true */\n      0x01\n        /* \"CoinSlot.sol\":1330:1354  hasActivePay[msg.sender] */\n      0x20\n      dup2\n      swap1\n      mstore\n      0x40\n      dup3\n      keccak256\n        /* \"CoinSlot.sol\":1330:1361  hasActivePay[msg.sender] = true */\n      dup1\n      sload\n      not(0xff)\n      and\n      swap1\n      swap2\n      or\n      swap1\n      sstore\n        /* \"CoinSlot.sol\":1371:1384  totalPayments */\n      0x02\n        /* \"CoinSlot.sol\":1371:1397  totalPayments += msg.value */\n      dup1\n      sload\n        /* \"CoinSlot.sol\":1388:1397  msg.value */\n      callvalue\n      swap3\n        /* \"CoinSlot.sol\":1330:1354  hasActivePay[msg.sender] */\n      swap1\n        /* \"CoinSlot.sol\":1371:1397  totalPayments += msg.value */\n      tag_84\n      swap1\n        /* \"CoinSlot.sol\":1388:1397  msg.value */\n      dup5\n      swap1\n        /* \"CoinSlot.sol\":1371:1397  totalPayments += msg.value */\n      tag_85\n      jump\t// in\n    tag_84:\n      swap1\n      swap2\n      sstore\n      pop\n      pop\n        /* \"CoinSlot.sol\":1421:1469  GamePaid(msg.sender, msg.value, block.timestamp) */\n      0x40\n      dup1\n      mload\n        /* \"CoinSlot.sol\":1442:1451  msg.value */\n      callvalue\n        /* \"#utility.yul\":2414:2439   */\n      dup2\n      mstore\n        /* \"CoinSlot.sol\":1453:1468  block.timestamp */\n      timestamp\n        /* \"#utility.yul\":2470:2472   */\n      0x20\n        /* \"#utility.yul\":2455:2473   */\n      dup3\n      add\n        /* \"#utility.yul\":2448:2482   */\n      mstore\n        /* \"CoinSlot.sol\":1430:1440  msg.sender */\n      caller\n      swap2\n        /* \"CoinSlot.sol\":1421:1469  GamePaid(msg.sender, msg.value, block.timestamp) */\n      0x5d099d19286ca62214ae2447e4a51a119073902a5af38e2672af80f26d0c0643\n      swap2\n        /* \"#utility.yul\":2387:2405   */\n      add\n        /* \"CoinSlot.sol\":1421:1469  GamePaid(msg.sender, msg.value, block.timestamp) */\n      mload(0x40)\n      dup1\n      swap2\n      sub\n      swap1\n      log2\n        /* \"CoinSlot.sol\":1159:1476  function playGame() external payable {... */\n      jump\t// out\n        /* \"CoinSlot.sol\":2928:3102  function transferOwnership(address newOwner) external onlyOwner {... */\n    tag_57:\n        /* \"CoinSlot.sol\":919:924  owner */\n      and(sub(shl(0xa0, 0x01), 0x01), sload(0x00))\n        /* \"CoinSlot.sol\":905:915  msg.sender */\n      caller\n        /* \"CoinSlot.sol\":905:924  msg.sender == owner */\n      eq\n        /* \"CoinSlot.sol\":897:962  require(msg.sender == owner, \"Only owner can call this function\") */\n      tag_88\n      jumpi\n      mload(0x40)\n      shl(0xe5, 0x461bcd)\n      dup2\n      mstore\n        /* \"#utility.yul\":1135:1137   */\n      0x20\n        /* \"CoinSlot.sol\":897:962  require(msg.sender == owner, \"Only owner can call this function\") */\n      0x04\n      dup3\n      add\n        /* \"#utility.yul\":1117:1138   */\n      mstore\n        /* \"#utility.yul\":1174:1176   */\n      0x21\n        /* \"#utility.yul\":1154:1172   */\n      0x24\n      dup3\n      add\n        /* \"#utility.yul\":1147:1177   */\n      mstore\n        /* \"#utility.yul\":1213:1247   */\n      0x4f6e6c79206f776e65722063616e2063616c6c20746869732066756e6374696f\n        /* \"#utility.yul\":1193:1211   */\n      0x44\n      dup3\n      add\n        /* \"#utility.yul\":1186:1248   */\n      mstore\n      shl(0xf9, 0x37)\n        /* \"#utility.yul\":1264:1282   */\n      0x64\n      dup3\n      add\n        /* \"#utility.yul\":1257:1288   */\n      mstore\n        /* \"#utility.yul\":1305:1324   */\n      0x84\n      add\n        /* \"CoinSlot.sol\":897:962  require(msg.sender == owner, \"Only owner can call this function\") */\n      tag_62\n        /* \"#utility.yul\":933:1330   */\n      jump\n        /* \"CoinSlot.sol\":897:962  require(msg.sender == owner, \"Only owner can call this function\") */\n    tag_88:\n      sub(shl(0xa0, 0x01), 0x01)\n        /* \"CoinSlot.sol\":3010:3032  newOwner != address(0) */\n      dup2\n      and\n        /* \"CoinSlot.sol\":3002:3069  require(newOwner != address(0), \"New owner cannot be zero address\") */\n      tag_91\n      jumpi\n      mload(0x40)\n      shl(0xe5, 0x461bcd)\n      dup2\n      mstore\n        /* \"#utility.yul\":3283:3285   */\n      0x20\n        /* \"CoinSlot.sol\":3002:3069  require(newOwner != address(0), \"New owner cannot be zero address\") */\n      0x04\n      dup3\n      add\n        /* \"#utility.yul\":3265:3286   */\n      dup2\n      swap1\n      mstore\n        /* \"#utility.yul\":3302:3320   */\n      0x24\n      dup3\n      add\n        /* \"#utility.yul\":3295:3325   */\n      mstore\n        /* \"#utility.yul\":3361:3395   */\n      0x4e6577206f776e65722063616e6e6f74206265207a65726f2061646472657373\n        /* \"#utility.yul\":3341:3359   */\n      0x44\n      dup3\n      add\n        /* \"#utility.yul\":3334:3396   */\n      mstore\n        /* \"#utility.yul\":3413:3431   */\n      0x64\n      add\n        /* \"CoinSlot.sol\":3002:3069  require(newOwner != address(0), \"New owner cannot be zero address\") */\n      tag_62\n        /* \"#utility.yul\":3081:3437   */\n      jump\n        /* \"CoinSlot.sol\":3002:3069  require(newOwner != address(0), \"New owner cannot be zero address\") */\n    tag_91:\n        /* \"CoinSlot.sol\":3079:3084  owner */\n      0x00\n        /* \"CoinSlot.sol\":3079:3095  owner = newOwner */\n      dup1\n      sload\n      0xffffffffffffffffffffffff0000000000000000000000000000000000000000\n      and\n      sub(shl(0xa0, 0x01), 0x01)\n      swap3\n      swap1\n      swap3\n      and\n      swap2\n      swap1\n      swap2\n      or\n      swap1\n      sstore\n        /* \"CoinSlot.sol\":2928:3102  function transferOwnership(address newOwner) external onlyOwner {... */\n      jump\t// out\n        /* \"#utility.yul\":196:505   */\n    tag_23:\n        /* \"#utility.yul\":255:261   */\n      0x00\n        /* \"#utility.yul\":308:310   */\n      0x20\n        /* \"#utility.yul\":296:305   */\n      dup3\n        /* \"#utility.yul\":287:294   */\n      dup5\n        /* \"#utility.yul\":283:306   */\n      sub\n        /* \"#utility.yul\":279:311   */\n      slt\n        /* \"#utility.yul\":276:328   */\n      iszero\n      tag_97\n      jumpi\n        /* \"#utility.yul\":324:325   */\n      0x00\n        /* \"#utility.yul\":321:322   */\n      dup1\n        /* \"#utility.yul\":314:326   */\n      revert\n        /* \"#utility.yul\":276:328   */\n    tag_97:\n        /* \"#utility.yul\":363:372   */\n      dup2\n        /* \"#utility.yul\":350:373   */\n      calldataload\n      sub(shl(0xa0, 0x01), 0x01)\n        /* \"#utility.yul\":406:411   */\n      dup2\n        /* \"#utility.yul\":402:456   */\n      and\n        /* \"#utility.yul\":395:400   */\n      dup2\n        /* \"#utility.yul\":392:457   */\n      eq\n        /* \"#utility.yul\":382:475   */\n      tag_98\n      jumpi\n        /* \"#utility.yul\":471:472   */\n      0x00\n        /* \"#utility.yul\":468:469   */\n      dup1\n        /* \"#utility.yul\":461:473   */\n      revert\n        /* \"#utility.yul\":382:475   */\n    tag_98:\n        /* \"#utility.yul\":494:499   */\n      swap4\n        /* \"#utility.yul\":196:505   */\n      swap3\n      pop\n      pop\n      pop\n      jump\t// out\n        /* \"#utility.yul\":2854:3076   */\n    tag_85:\n        /* \"#utility.yul\":2919:2928   */\n      dup1\n      dup3\n      add\n        /* \"#utility.yul\":2940:2950   */\n      dup1\n      dup3\n      gt\n        /* \"#utility.yul\":2937:3070   */\n      iszero\n      tag_108\n      jumpi\n        /* \"#utility.yul\":2992:3002   */\n      0x4e487b71\n        /* \"#utility.yul\":2987:2990   */\n      0xe0\n        /* \"#utility.yul\":2983:3003   */\n      shl\n        /* \"#utility.yul\":2980:2981   */\n      0x00\n        /* \"#utility.yul\":2973:3004   */\n      mstore\n        /* \"#utility.yul\":3027:3031   */\n      0x11\n        /* \"#utility.yul\":3024:3025   */\n      0x04\n        /* \"#utility.yul\":3017:3032   */\n      mstore\n        /* \"#utility.yul\":3055:3059   */\n      0x24\n        /* \"#utility.yul\":3052:3053   */\n      0x00\n        /* \"#utility.yul\":3045:3060   */\n      revert\n        /* \"#utility.yul\":2937:3070   */\n    tag_108:\n        /* \"#utility.yul\":2854:3076   */\n      swap3\n      swap2\n      pop\n      pop\n      jump\t// out\n\n    auxdata: 0xa264697066735822122056f488c57f7f240a1ee51ae1500b65e08a78c3f3f99a5cb7801652c192fa62e864736f6c63430008190033\n}\n",
    "bytecode": {
      "linkReferences": {},
      "object": "6080604052348015600e575f80fd5b505f80546001600160a01b031916331790556106478061002d5f395ff3fe6080604052600436106100ac575f3560e01c806380040f4b11610066578063af8997351161004c578063af899735146101ca578063b216a6c6146101d2578063f2fde38b146101ed575f80fd5b806380040f4b146101665780638da5cb5b14610194575f80fd5b806312065fe01161009657806312065fe01461011f5780633ccfd60b146101315780636f07f72e14610147575f80fd5b80625b4487146100b0578063029a18dc146100d8575b5f80fd5b3480156100bb575f80fd5b506100c560025481565b6040519081526020015b60405180910390f35b3480156100e3575f80fd5b5061010f6100f23660046105bf565b6001600160a01b03165f9081526001602052604090205460ff1690565b60405190151581526020016100cf565b34801561012a575f80fd5b50476100c5565b34801561013c575f80fd5b5061014561020c565b005b348015610152575f80fd5b506101456101613660046105bf565b6103ac565b348015610171575f80fd5b5061010f6101803660046105bf565b60016020525f908152604090205460ff1681565b34801561019f575f80fd5b505f546101b2906001600160a01b031681565b6040516001600160a01b0390911681526020016100cf565b610145610408565b3480156101dd575f80fd5b506100c567016345785d8a000081565b3480156101f8575f80fd5b506101456102073660046105bf565b6104cd565b5f546001600160a01b031633146102745760405162461bcd60e51b815260206004820152602160248201527f4f6e6c79206f776e65722063616e2063616c6c20746869732066756e6374696f6044820152603760f91b60648201526084015b60405180910390fd5b47806102c25760405162461bcd60e51b815260206004820152601460248201527f4e6f2066756e647320746f207769746864726177000000000000000000000000604482015260640161026b565b5f80546040516001600160a01b039091169083908381818185875af1925050503d805f811461030c576040519150601f19603f3d011682016040523d82523d5f602084013e610311565b606091505b50509050806103625760405162461bcd60e51b815260206004820152601160248201527f5769746864726177616c206661696c6564000000000000000000000000000000604482015260640161026b565b5f54604080518481524260208201526001600160a01b03909216917fdf273cb619d95419a9cd0ec88123a0538c85064229baa6363788f743fff90deb910160405180910390a25050565b6001600160a01b0381165f8181526001602052604090819020805460ff19169055517fffb79ca6e325c1dc8da4ed54b535b4bdec600ca51bd7f86dbb295431cc052548906103fd9042815260200190565b60405180910390a250565b67016345785d8a0000341461045f5760405162461bcd60e51b815260206004820181905260248201527f4d757374207061792065786163746c7920302e312041504520746f20706c6179604482015260640161026b565b335f9081526001602081905260408220805460ff191690911790556002805434929061048c9084906105ec565b90915550506040805134815242602082015233917f5d099d19286ca62214ae2447e4a51a119073902a5af38e2672af80f26d0c0643910160405180910390a2565b5f546001600160a01b031633146105305760405162461bcd60e51b815260206004820152602160248201527f4f6e6c79206f776e65722063616e2063616c6c20746869732066756e6374696f6044820152603760f91b606482015260840161026b565b6001600160a01b0381166105865760405162461bcd60e51b815260206004820181905260248201527f4e6577206f776e65722063616e6e6f74206265207a65726f2061646472657373604482015260640161026b565b5f80547fffffffffffffffffffffffff0000000000000000000000000000000000000000166001600160a01b0392909216919091179055565b5f602082840312156105cf575f80fd5b81356001600160a01b03811681146105e5575f80fd5b9392505050565b8082018082111561060b57634e487b7160e01b5f52601160045260245ffd5b9291505056fea264697066735822122056f488c57f7f240a1ee51ae1500b65e08a78c3f3f99a5cb7801652c192fa62e864736f6c63430008190033",
      "opcodes": "PUSH1 0x80 PUSH1 0x40 MSTORE CALLVALUE DUP1 ISZERO PUSH1 0xE JUMPI PUSH0 DUP1 REVERT JUMPDEST POP PUSH0 DUP1 SLOAD PUSH1 0x1 PUSH1 0x1 PUSH1 0xA0 SHL SUB NOT AND CALLER OR SWAP1 SSTORE PUSH2 0x647 DUP1 PUSH2 0x2D PUSH0 CODECOPY PUSH0 RETURN INVALID PUSH1 0x80 PUSH1 0x40 MSTORE PUSH1 0x4 CALLDATASIZE LT PUSH2 0xAC JUMPI PUSH0 CALLDATALOAD PUSH1 0xE0 SHR DUP1 PUSH4 0x80040F4B GT PUSH2 0x66 JUMPI DUP1 PUSH4 0xAF899735 GT PUSH2 0x4C JUMPI DUP1 PUSH4 0xAF899735 EQ PUSH2 0x1CA JUMPI DUP1 PUSH4 0xB216A6C6 EQ PUSH2 0x1D2 JUMPI DUP1 PUSH4 0xF2FDE38B EQ PUSH2 0x1ED JUMPI PUSH0 DUP1 REVERT JUMPDEST DUP1 PUSH4 0x80040F4B EQ PUSH2 0x166 JUMPI DUP1 PUSH4 0x8DA5CB5B EQ PUSH2 0x194 JUMPI PUSH0 DUP1 REVERT JUMPDEST DUP1 PUSH4 0x12065FE0 GT PUSH2 0x96 JUMPI DUP1 PUSH4 0x12065FE0 EQ PUSH2 0x11F JUMPI DUP1 PUSH4 0x3CCFD60B EQ PUSH2 0x131 JUMPI DUP1 PUSH4 0x6F07F72E EQ PUSH2 0x147 JUMPI PUSH0 DUP1 REVERT JUMPDEST DUP1 PUSH3 0x5B4487 EQ PUSH2 0xB0 JUMPI DUP1 PUSH4 0x29A18DC EQ PUSH2 0xD8 JUMPI JUMPDEST PUSH0 DUP1 REVERT JUMPDEST CALLVALUE DUP1 ISZERO PUSH2 0xBB JUMPI PUSH0 DUP1 REVERT JUMPDEST POP PUSH2 0xC5 PUSH1 0x2 SLOAD DUP2 JUMP JUMPDEST PUSH1 0x40 MLOAD SWAP1 DUP2 MSTORE PUSH1 0x20 ADD JUMPDEST PUSH1 0x40 MLOAD DUP1 SWAP2 SUB SWAP1 RETURN JUMPDEST CALLVALUE DUP1 ISZERO PUSH2 0xE3 JUMPI PUSH0 DUP1 REVERT JUMPDEST POP PUSH2 0x10F PUSH2 0xF2 CALLDATASIZE PUSH1 0x4 PUSH2 0x5BF JUMP JUMPDEST PUSH1 0x1 PUSH1 0x1 PUSH1 0xA0 SHL SUB AND PUSH0 SWAP1 DUP2 MSTORE PUSH1 0x1 PUSH1 0x20 MSTORE PUSH1 0x40 SWAP1 KECCAK256 SLOAD PUSH1 0xFF AND SWAP1 JUMP JUMPDEST PUSH1 0x40 MLOAD SWAP1 ISZERO ISZERO DUP2 MSTORE PUSH1 0x20 ADD PUSH2 0xCF JUMP JUMPDEST CALLVALUE DUP1 ISZERO PUSH2 0x12A JUMPI PUSH0 DUP1 REVERT JUMPDEST POP SELFBALANCE PUSH2 0xC5 JUMP JUMPDEST CALLVALUE DUP1 ISZERO PUSH2 0x13C JUMPI PUSH0 DUP1 REVERT JUMPDEST POP PUSH2 0x145 PUSH2 0x20C JUMP JUMPDEST STOP JUMPDEST CALLVALUE DUP1 ISZERO PUSH2 0x152 JUMPI PUSH0 DUP1 REVERT JUMPDEST POP PUSH2 0x145 PUSH2 0x161 CALLDATASIZE PUSH1 0x4 PUSH2 0x5BF JUMP JUMPDEST PUSH2 0x3AC JUMP JUMPDEST CALLVALUE DUP1 ISZERO PUSH2 0x171 JUMPI PUSH0 DUP1 REVERT JUMPDEST POP PUSH2 0x10F PUSH2 0x180 CALLDATASIZE PUSH1 0x4 PUSH2 0x5BF JUMP JUMPDEST PUSH1 0x1 PUSH1 0x20 MSTORE PUSH0 SWAP1 DUP2 MSTORE PUSH1 0x40 SWAP1 KECCAK256 SLOAD PUSH1 0xFF AND DUP2 JUMP JUMPDEST CALLVALUE DUP1 ISZERO PUSH2 0x19F JUMPI PUSH0 DUP1 REVERT JUMPDEST POP PUSH0 SLOAD PUSH2 0x1B2 SWAP1 PUSH1 0x1 PUSH1 0x1 PUSH1 0xA0 SHL SUB AND DUP2 JUMP JUMPDEST PUSH1 0x40 MLOAD PUSH1 0x1 PUSH1 0x1 PUSH1 0xA0 SHL SUB SWAP1 SWAP2 AND DUP2 MSTORE PUSH1 0x20 ADD PUSH2 0xCF JUMP JUMPDEST PUSH2 0x145 PUSH2 0x408 JUMP JUMPDEST CALLVALUE DUP1 ISZERO PUSH2 0x1DD JUMPI PUSH0 DUP1 REVERT JUMPDEST POP PUSH2 0xC5 PUSH8 0x16345785D8A0000 DUP2 JUMP JUMPDEST CALLVALUE DUP1 ISZERO PUSH2 0x1F8 JUMPI PUSH0 DUP1 REVERT JUMPDEST POP PUSH2 0x145 PUSH2 0x207 CALLDATASIZE PUSH1 0x4 PUSH2 0x5BF JUMP JUMPDEST PUSH2 0x4CD JUMP JUMPDEST PUSH0 SLOAD PUSH1 0x1 PUSH1 0x1 PUSH1 0xA0 SHL SUB AND CALLER EQ PUSH2 0x274 JUMPI PUSH1 0x40 MLOAD PUSH3 0x461BCD PUSH1 0xE5 SHL DUP2 MSTORE PUSH1 0x20 PUSH1 0x4 DUP3 ADD MSTORE PUSH1 0x21 PUSH1 0x24 DUP3 ADD MSTORE PUSH32 0x4F6E6C79206F776E65722063616E2063616C6C20746869732066756E6374696F PUSH1 0x44 DUP3 ADD MSTORE PUSH1 0x37 PUSH1 0xF9 SHL PUSH1 0x64 DUP3 ADD MSTORE PUSH1 0x84 ADD JUMPDEST PUSH1 0x40 MLOAD DUP1 SWAP2 SUB SWAP1 REVERT JUMPDEST SELFBALANCE DUP1 PUSH2 0x2C2 JUMPI PUSH1 0x40 MLOAD PUSH3 0x461BCD PUSH1 0xE5 SHL DUP2 MSTORE PUSH1 0x20 PUSH1 0x4 DUP3 ADD MSTORE PUSH1 0x14 PUSH1 0x24 DUP3 ADD MSTORE PUSH32 0x4E6F2066756E647320746F207769746864726177000000000000000000000000 PUSH1 0x44 DUP3 ADD MSTORE PUSH1 0x64 ADD PUSH2 0x26B JUMP JUMPDEST PUSH0 DUP1 SLOAD PUSH1 0x40 MLOAD PUSH1 0x1 PUSH1 0x1 PUSH1 0xA0 SHL SUB SWAP1 SWAP2 AND SWAP1 DUP4 SWAP1 DUP4 DUP2 DUP2 DUP2 DUP6 DUP8 GAS CALL SWAP3 POP POP POP RETURNDATASIZE DUP1 PUSH0 DUP2 EQ PUSH2 0x30C JUMPI PUSH1 0x40 MLOAD SWAP2 POP PUSH1 0x1F NOT PUSH1 0x3F RETURNDATASIZE ADD AND DUP3 ADD PUSH1 0x40 MSTORE RETURNDATASIZE DUP3 MSTORE RETURNDATASIZE PUSH0 PUSH1 0x20 DUP5 ADD RETURNDATACOPY PUSH2 0x311 JUMP JUMPDEST PUSH1 0x60 SWAP2 POP JUMPDEST POP POP SWAP1 POP DUP1 PUSH2 0x362 JUMPI PUSH1 0x40 MLOAD PUSH3 0x461BCD PUSH1 0xE5 SHL DUP2 MSTORE PUSH1 0x20 PUSH1 0x4 DUP3 ADD MSTORE PUSH1 0x11 PUSH1 0x24 DUP3 ADD MSTORE PUSH32 0x5769746864726177616C206661696C6564000000000000000000000000000000 PUSH1 0x44 DUP3 ADD MSTORE PUSH1 0x64 ADD PUSH2 0x26B JUMP JUMPDEST PUSH0 SLOAD PUSH1 0x40 DUP1 MLOAD DUP5 DUP2 MSTORE TIMESTAMP PUSH1 0x20 DUP3 ADD MSTORE PUSH1 0x1 PUSH1 0x1 PUSH1 0xA0 SHL SUB SWAP1 SWAP3 AND SWAP2 PUSH32 0xDF273CB619D95419A9CD0EC88123A0538C85064229BAA6363788F743FFF90DEB SWAP2 ADD PUSH1 0x40 MLOAD DUP1 SWAP2 SUB SWAP1 LOG2 POP POP JUMP JUMPDEST PUSH1 0x1 PUSH1 0x1 PUSH1 0xA0 SHL SUB DUP2 AND PUSH0 DUP2 DUP2 MSTORE PUSH1 0x1 PUSH1 0x20 MSTORE PUSH1 0x40 SWAP1 DUP2 SWAP1 KECCAK256 DUP1 SLOAD PUSH1 0xFF NOT AND SWAP1 SSTORE MLOAD PUSH32 0xFFB79CA6E325C1DC8DA4ED54B535B4BDEC600CA51BD7F86DBB295431CC052548 SWAP1 PUSH2 0x3FD SWAP1 TIMESTAMP DUP2 MSTORE PUSH1 0x20 ADD SWAP1 JUMP JUMPDEST PUSH1 0x40 MLOAD DUP1 SWAP2 SUB SWAP1 LOG2 POP JUMP JUMPDEST PUSH8 0x16345785D8A0000 CALLVALUE EQ PUSH2 0x45F JUMPI PUSH1 0x40 MLOAD PUSH3 0x461BCD PUSH1 0xE5 SHL DUP2 MSTORE PUSH1 0x20 PUSH1 0x4 DUP3 ADD DUP2 SWAP1 MSTORE PUSH1 0x24 DUP3 ADD MSTORE PUSH32 0x4D757374207061792065786163746C7920302E312041504520746F20706C6179 PUSH1 0x44 DUP3 ADD MSTORE PUSH1 0x64 ADD PUSH2 0x26B JUMP JUMPDEST CALLER PUSH0 SWAP1 DUP2 MSTORE PUSH1 0x1 PUSH1 0x20 DUP2 SWAP1 MSTORE PUSH1 0x40 DUP3 KECCAK256 DUP1 SLOAD PUSH1 0xFF NOT AND SWAP1 SWAP2 OR SWAP1 SSTORE PUSH1 0x2 DUP1 SLOAD CALLVALUE SWAP3 SWAP1 PUSH2 0x48C SWAP1 DUP5 SWAP1 PUSH2 0x5EC JUMP JUMPDEST SWAP1 SWAP2 SSTORE POP POP PUSH1 0x40 DUP1 MLOAD CALLVALUE DUP2 MSTORE TIMESTAMP PUSH1 0x20 DUP3 ADD MSTORE CALLER SWAP2 PUSH32 0x5D099D19286CA62214AE2447E4A51A119073902A5AF38E2672AF80F26D0C0643 SWAP2 ADD PUSH1 0x40 MLOAD DUP1 SWAP2 SUB SWAP1 LOG2 JUMP JUMPDEST PUSH0 SLOAD PUSH1 0x1 PUSH1 0x1 PUSH1 0xA0 SHL SUB AND CALLER EQ PUSH2 0x530 JUMPI PUSH1 0x40 MLOAD PUSH3 0x461BCD PUSH1 0xE5 SHL DUP2 MSTORE PUSH1 0x20 PUSH1 0x4 DUP3 ADD MSTORE PUSH1 0x21 PUSH1 0x24 DUP3 ADD MSTORE PUSH32 0x4F6E6C79206F776E65722063616E2063616C6C20746869732066756E6374696F PUSH1 0x44 DUP3 ADD MSTORE PUSH1 0x37 PUSH1 0xF9 SHL PUSH1 0x64 DUP3 ADD MSTORE PUSH1 0x84 ADD PUSH2 0x26B JUMP JUMPDEST PUSH1 0x1 PUSH1 0x1 PUSH1 0xA0 SHL SUB DUP2 AND PUSH2 0x586 JUMPI PUSH1 0x40 MLOAD PUSH3 0x461BCD PUSH1 0xE5 SHL DUP2 MSTORE PUSH1 0x20 PUSH1 0x4 DUP3 ADD DUP2 SWAP1 MSTORE PUSH1 0x24 DUP3 ADD MSTORE PUSH32 0x4E6577206F776E65722063616E6E6F74206265207A65726F2061646472657373 PUSH1 0x44 DUP3 ADD MSTORE PUSH1 0x64 ADD PUSH2 0x26B JUMP JUMPDEST PUSH0 DUP1 SLOAD PUSH32 0xFFFFFFFFFFFFFFFFFFFFFFFF0000000000000000000000000000000000000000 AND PUSH1 0x1 PUSH1 0x1 PUSH1 0xA0 SHL SUB SWAP3 SWAP1 SWAP3 AND SWAP2 SWAP1 SWAP2 OR SWAP1 SSTORE JUMP JUMPDEST PUSH0 PUSH1 0x20 DUP3 DUP5 SUB SLT ISZERO PUSH2 0x5CF JUMPI PUSH0 DUP1 REVERT JUMPDEST DUP2 CALLDATALOAD PUSH1 0x1 PUSH1 0x1 PUSH1 0xA0 SHL SUB DUP2 AND DUP2 EQ PUSH2 0x5E5 JUMPI PUSH0 DUP1 REVERT JUMPDEST SWAP4 SWAP3 POP POP POP JUMP JUMPDEST DUP1 DUP3 ADD DUP1 DUP3 GT ISZERO PUSH2 0x60B JUMPI PUSH4 0x4E487B71 PUSH1 0xE0 SHL PUSH0 MSTORE PUSH1 0x11 PUSH1 0x4 MSTORE PUSH1 0x24 PUSH0 REVERT JUMPDEST SWAP3 SWAP2 POP POP JUMP INVALID LOG2 PUSH5 0x6970667358 0x22 SLT KECCAK256 JUMP DELEGATECALL DUP9 0xC5 PUSH32 0x7F240A1EE51AE1500B65E08A78C3F3F99A5CB7801652C192FA62E864736F6C63 NUMBER STOP ADDMOD NOT STOP CALLER "
    },
    "gasEstimates": {
      "creation": {
        "codeDepositCost": "321400",
        "executionCost": "24594",
        "totalCost": "345994"
      },
      "external": {
        "PLAY_COST()": "227",
        "clearPayment(address)": "26090",
        "getBalance()": "205",
        "hasActivePay(address)": "2516",
        "hasActivePayment(address)": "2557",
        "owner()": "2380",
        "playGame()": "50474",
        "totalPayments()": "2307",
        "transferOwnership(address)": "26758",
        "withdraw()": "infinite"
      }
    },
    "methodIdentifiers": {
      "PLAY_COST()": "b216a6c6",
      "clearPayment(address)": "6f07f72e",
      "getBalance()": "12065fe0",
      "hasActivePay(address)": "80040f4b",
      "hasActivePayment(address)": "029a18dc",
      "owner()": "8da5cb5b",
      "playGame()": "af899735",
      "totalPayments()": "005b4487",
      "transferOwnership(address)": "f2fde38b",
      "withdraw()": "3ccfd60b"
    }
  },
  "storageLayout": {
    "storage": [
      {
        "astId": 4,
        "contract": "CoinSlot.sol:CoinSlot",
        "label": "owner",
        "offset": 0,
        "slot": "0",
        "type": "t_address"
      },
      {
        "astId": 11,
        "contract": "CoinSlot.sol:CoinSlot",
        "label": "hasActivePay",
        "offset": 0,
        "slot": "1",
        "type": "t_mapping(t_address,t_bool)"
      },
      {
        "astId": 13,
        "contract": "CoinSlot.sol:CoinSlot",
        "label": "totalPayments",
        "offset": 0,
        "slot": "2",
        "type": "t_uint256"
      }
    ],
    "types": {
      "t_address": {
        "encoding": "inplace",
        "label": "address",
        "numberOfBytes": "20"
      },
      "t_bool": {
        "encoding": "inplace",
        "label": "bool",
        "numberOfBytes": "1"
      },
      "t_mapping(t_address,t_bool)": {
        "encoding": "mapping",
        "key": "t_address",
        "label": "mapping(address => bool)",
        "numberOfBytes": "32",
        "value": "t_bool"
      },
      "t_uint256": {
        "encoding": "inplace",
        "label": "uint256",
        "numberOfBytes": "32"
      }
    }
  },
  "userdoc": {
    "kind": "user",
    "methods": {},
    "version": 1
  }
}